:1000000012C0189518951895189518951895189563
:100010001895189518951895189518951895189578
:100020001895189518958FED8DBFC8EBE0EA4E2E08
:10003000DD275D2EA89584B7082E877F84BF88E1D1
:10004000992781BD91BDEEE7F0E0A0E6B0E08827FA
:100050008D933197E9F7662480E081BB8FEF87BBF2
:1000600074B7777F74BF8EE181BD86E081BDBB9A96
:1000700081EA8FBD81E08EBD70E078BBBB9ABC9AEF
:100080008FEF90E090934B0080934A008FEF90E0C9
:100090009093490080934800709162007F7770933D
:1000A0006200869B2EC084E690E044D381E080937A
:1000B000600000916000043110F009F00BC0AAE468
:1000C00029D384E190E036D3A0E68C918F5F8C93A6
:1000D00008F4EFCF84E690E02DD381E080936000B8
:1000E00000916000043110F009F00BC0A8E412D3B5
:1000F00084E190E01FD3A0E68C918F5F8C9308F48D
:10010000EFCF81B5886081BD869B1CC08AE090E0FE
:1001100011D3A2E68C9187FB0EF014C0C0988BEE31
:1001200090E090934B0080934A008BEE90E0909388
:10013000490080934800C198C298709162007F770F
:10014000709362008699E2C2709162007068709349
:10015000620081E08093610000916100023010F044
:1001600009F070C081E0809360000091600003306E
:1001700010F009F029C0C09A80E090E090934B0005
:1001800080934A0080E090E090934900809348007B
:10019000C19A82E390E0CED2C0988FEF90E0909326
:1001A0004B0080934A008FEF90E09093490080933A
:1001B0004800C19882E390E0BDD2A895A0E68C915A
:1001C0008F5F8C9308F4D1CF84E690E0B3D281E0C6
:1001D0008093600000916000033010F009F029C0A6
:1001E000C09A80E090E090934B0080934A0080E0BA
:1001F00090E09093490080934800C29A82E390E097
:1002000099D2C0988FEF90E090934B0080934A0072
:100210008FEF90E09093490080934800C29882E36A
:1002200090E088D2A895A0E68C918F5F8C9308F41B
:10023000D1CF84E690E07ED2A1E68C918F5F8C9343
:1002400008F48ACF81E08093600000916000033061
:1002500010F009F02BC0C09A80E090E090934B0022
:1002600080934A0080E090E090934900809348009A
:10027000C19AC29A82E390E05DD2C0988FEF90E07D
:1002800090934B0080934A008FEF90E09093490049
:1002900080934800C198C29882E390E04BD2A89521
:1002A000A0E68C918F5F8C9308F4CFCF84E690E02A
:1002B00041D281E08093610000916100023010F032
:1002C00009F0B0C081E080936000009160000530CB
:1002D00010F009F029C0C09A80E090E090934B00A4
:1002E00080934A0080E090E090934900809348001A
:1002F000C19A82E390E01ED2C0988FEF90E0909375
:100300004B0080934A008FEF90E0909349008093D8
:100310004800C19884E190E00DD2A895A0E68C91A8
:100320008F5F8C9308F4D1CFC09A80E090E09093D7
:100330004B0080934A0080E090E0909349008093C6
:100340004800C19A8CE291E0F5D1C0988FEF90E01F
:1003500090934B0080934A008FEF90E09093490078
:1003600080934800C19884E690E0E4D1A89581E0AC
:100370008093600000916000053010F009F029C002
:10038000C09A80E090E090934B0080934A0080E018
:1003900090E09093490080934800C29A82E390E0F5
:1003A000C9D1C0988FEF90E090934B0080934A00A2
:1003B0008FEF90E09093490080934800C29884E1C9
:1003C00090E0B8D1A895A0E68C918F5F8C9308F44B
:1003D000D1CFC09A80E090E090934B0080934A0088
:1003E00080E090E09093490080934800C29A8CE2AC
:1003F00091E0A0D1C0988FEF90E090934B00809354
:100400004A008FEF90E09093490080934800C29893
:1004100084E690E08FD1A895A1E68C918F5F8C93B4
:1004200008F44ACF81E080936000009160000530BD
:1004300010F009F02BC0C09A80E090E090934B0040
:1004400080934A0080E090E09093490080934800B8
:10045000C19AC29A82E390E06DD1C0988FEF90E08C
:1004600090934B0080934A008FEF90E09093490067
:1004700080934800C198C29884E190E05BD1A89530
:10048000A0E68C918F5F8C9308F4CFCFC09A80E068
:1004900090E090934B0080934A0080E090E090932E
:1004A000490080934800C19AC29A8CE291E042D1FF
:1004B000C0988FEF90E090934B0080934A008FEFAD
:1004C00090E09093490080934800C198C29884E6D8
:1004D00090E030D1A89581E08093610000916100A7
:1004E000023010F009F0B6C0C09A80E090E090931E
:1004F0004B0080934A0080E090E090934900809305
:100500004800C19A8CE291E015D1C0988FEF90E03D
:1005100090934B0080934A008FEF90E090934900B6
:1005200080934800C19884E690E004D1A89581E0CA
:100530008093600000916000023010F009F029C043
:10054000C09A80E090E090934B0080934A0080E056
:1005500090E09093490080934800C19A82E390E034
:10056000E9D0C0988FEF90E090934B0080934A00C1
:100570008FEF90E09093490080934800C19882E308
:1005800090E0D8D0A895A0E68C918F5F8C9308F46A
:10059000D1CF84E690E0CED0C09A80E090E09093F6
:1005A0004B0080934A0080E090E090934900809354
:1005B0004800C29A8CE291E0BDD0C0988FEF90E0E5
:1005C00090934B0080934A008FEF90E09093490006
:1005D00080934800C29884E690E0ACD0A89581E072
:1005E0008093600000916000023010F009F029C093
:1005F000C09A80E090E090934B0080934A0080E0A6
:1006000090E09093490080934800C29A82E390E082
:1006100091D0C0988FEF90E090934B0080934A0068
:100620008FEF90E09093490080934800C29882E356
:1006300090E080D0A895A0E68C918F5F8C9308F411
:10064000D1CF84E690E076D0A1E68C918F5F8C9339
:1006500008F444CFC09A80E090E090934B008093E0
:100660004A0080E090E09093490080934800C19A4E
:10067000C29A8CE291E05ED0C0988FEF90E09093A8
:100680004B0080934A008FEF90E090934900809355
:100690004800C198C29884E690E04CD0A89581E0CB
:1006A0008093600000916000023010F009F02BC0D0
:1006B000C09A80E090E090934B0080934A0080E0E5
:1006C00090E09093490080934800C19AC29A82E3D7
:1006D00090E030D0C0988FEF90E090934B008093E3
:1006E0004A008FEF90E09093490080934800C198B2
:1006F000C29882E390E01ED0A895A0E68C918F5F0F
:100700008C9308F4CFCF84E690E014D0A895FCCC6D
:10071000F894FFCFED91FC91E150F040FC93EE9303
:1007200008953197F1F70895689462F80895E89470
:1007300062F80895EF93FF93EE27E82BE92B31F051
:10074000E0EDF7E03197F1F70197D1F7FF91EF91E5
:0207500008950A
:00000001FF
