:1000000012C0189518951895189518951895189563
:100010001895189518951895189518951895189578
:100020001895189518958FED8DBFC8EBE0EA4E2E08
:10003000DD275D2EA89584B7082E877F84BF88E1D1
:10004000992781BD91BDEEE7F0E0A0E6B0E08827FA
:100050008D933197E9F7662480E081BB8FEF87BBF2
:1000600074B7777F74BF8EE181BD86E081BDBB9A96
:1000700081EA8FBD81E08EBD70E078BBBB9ABC9AEF
:100080008FEF90E090934B0080934A008FEF90E0C9
:10009000909349008093480080E08093610081B58F
:1000A000886081BD009161000A3F08F004C0A1E6AC
:1000B0008C918F5F8C9300916100043609F014C01D
:1000C00081E08093600000916000043110F009F03D
:1000D0000BC0AAE4C8D084E190E0D5D0A0E68C9112
:1000E0008F5F8C9308F4EFCF00916100083C09F01A
:1000F00014C081E08093600000916000043110F032
:1001000009F00BC0A8E4AFD084E190E0BCD0A0E639
:100110008C918F5F8C9308F4EFCFA0E30C9106FBDA
:1001200081E00EF080E08F93009161000A3F81E052
:1001300009F080E09F918923882309F43BC0C0988F
:10014000AAE40D911C910F3F50E0150709F014C06F
:1001500081E08093600000916000043110F009F0AC
:100160000BC0AAE480D084E190E08DD0A0E68C9111
:100170008F5F8C9308F4EFCFA8E40D911C910F3F93
:1001800050E0150709F014C081E0809360000091F1
:100190006000043110F009F00BC0A8E464D084E1E1
:1001A00090E071D0A0E68C918F5F8C9308F4EFCF34
:1001B000C198C298869950C081E0809360000091F8
:1001C0006000033010F009F01CC0C09A80E090E09D
:1001D00090934B0080934A00C19A88E290E053D0FC
:1001E000C0988FEF90E090934B0080934A00C198A5
:1001F0008CE390E048D0A0E68C918F5F8C9308F45C
:10020000DECF84E690E03FD081E0809360000091F3
:100210006000033010F009F01CC0C09A80E090E04C
:100220009093490080934800C29A88E290E02BD0D6
:10023000C0988FEF90E09093490080934800C29857
:100240008CE390E020D0A0E68C918F5F8C9308F433
:10025000DECF83E690E017D0A89581E090E013D040
:1002600021CFF894FFCFED91FC91E150F040FC9349
:10027000EE9308953197F1F70895689462F8089520
:10028000E89462F80895EF93FF93EE27E82BE92BAB
:1002900031F0E0EDF7E03197F1F70197D1F7FF91F9
:0402A000EF9108953D
:00000001FF
